ACSSF DE040000000001     10                                                                                                                                                       04000US10                               Delaware                                                                                                                                                                                                                                                                                                                                                                                                                                                                                                                                                                                                                                                                                                                                                                                                                                                                                                                                                                                                                                                                                  
ACSSF DE040010000002     10                                                                                                                                U                      04001US10                               Delaware -- Urban                                                                                                                                                                                                                                                                                                                                                                                                                                                                                                                                                                                                                                                                                                                                                                                                                                                                                                                                                                                                                                                                         
ACSSF DE040430000003     10                                                                                                                                R                      04043US10                               Delaware -- Rural                                                                                                                                                                                                                                                                                                                                                                                                                                                                                                                                                                                                                                                                                                                                                                                                                                                                                                                                                                                                                                                                         
ACSSF DE040A00000004     10                                                                                                                                                       040A0US10                               Delaware -- In metropolitan or micropolitan statistical area                                                                                                                                                                                                                                                                                                                                                                                                                                                                                                                                                                                                                                                                                                                                                                                                                                                                                                                                                                                                                              
ACSSF DE040C00000005     10                                                              1                                                                                        040C0US10                               Delaware -- In metropolitan statistical area                                                                                                                                                                                                                                                                                                                                                                                                                                                                                                                                                                                                                                                                                                                                                                                                                                                                                                                                                                                                                                              
ACSSF DE040C10000006     10                                                              1                                                                  Y                     040C1US10                               Delaware -- In metropolitan statistical area -- in principal city                                                                                                                                                                                                                                                                                                                                                                                                                                                                                                                                                                                                                                                                                                                                                                                                                                                                                                                                                                                                                         
ACSSF DE040C20000007     10                                                              1                                                                                        040C2US10                               Delaware -- In metropolitan statistical area -- not in principal city                                                                                                                                                                                                                                                                                                                                                                                                                                                                                                                                                                                                                                                                                                                                                                                                                                                                                                                                                                                                                     
ACSSF DE040E00000008     10                                                              2                                                                                        040E0US10                               Delaware -- In micropolitan statistical area                                                                                                                                                                                                                                                                                                                                                                                                                                                                                                                                                                                                                                                                                                                                                                                                                                                                                                                                                                                                                                              
ACSSF DE040E10000009     10                                                              2                                                                  Y                     040E1US10                               Delaware -- In micropolitan statistical area -- in principal city                                                                                                                                                                                                                                                                                                                                                                                                                                                                                                                                                                                                                                                                                                                                                                                                                                                                                                                                                                                                                         
ACSSF DE040E20000010     10                                                              2                                                                                        040E2US10                               Delaware -- In micropolitan statistical area -- not in principal city                                                                                                                                                                                                                                                                                                                                                                                                                                                                                                                                                                                                                                                                                                                                                                                                                                                                                                                                                                                                                     
ACSSF DE040H00000011     10                                                                                                                                                       040H0US10                               Delaware -- Not in metropolitan statistical area                                                                                                                                                                                                                                                                                                                                                                                                                                                                                                                                                                                                                                                                                                                                                                                                                                                                                                                                                                                                                                          
ACSSF DE050000000012     10001                                                                                                                                                    05000US10001                            Kent County, Delaware                                                                                                                                                                                                                                                                                                                                                                                                                                                                                                                                                                                                                                                                                                                                                                                                                                                                                                                                                                                                                                                                     
ACSSF DE050000000013     10003                                                                                                                                                    05000US10003                            New Castle County, Delaware                                                                                                                                                                                                                                                                                                                                                                                                                                                                                                                                                                                                                                                                                                                                                                                                                                                                                                                                                                                                                                                               
ACSSF DE050000000014     10005                                                                                                                                                    05000US10005                            Sussex County, Delaware                                                                                                                                                                                                                                                                                                                                                                                                                                                                                                                                                                                                                                                                                                                                                                                                                                                                                                                                                                                                                                                                   
ACSSF DE060000000015     1000190444                                                                                                                                               06000US1000190444                       Central Kent CCD, Kent County, Delaware                                                                                                                                                                                                                                                                                                                                                                                                                                                                                                                                                                                                                                                                                                                                                                                                                                                                                                                                                                                                                                                   
ACSSF DE060000000016     1000190740                                                                                                                                               06000US1000190740                       Dover CCD, Kent County, Delaware                                                                                                                                                                                                                                                                                                                                                                                                                                                                                                                                                                                                                                                                                                                                                                                                                                                                                                                                                                                                                                                          
ACSSF DE060000000017     1000190888                                                                                                                                               06000US1000190888                       Felton CCD, Kent County, Delaware                                                                                                                                                                                                                                                                                                                                                                                                                                                                                                                                                                                                                                                                                                                                                                                                                                                                                                                                                                                                                                                         
ACSSF DE060000000018     1000191332                                                                                                                                               06000US1000191332                       Harrington CCD, Kent County, Delaware                                                                                                                                                                                                                                                                                                                                                                                                                                                                                                                                                                                                                                                                                                                                                                                                                                                                                                                                                                                                                                                     
ACSSF DE060000000019     1000191480                                                                                                                                               06000US1000191480                       Kenton CCD, Kent County, Delaware                                                                                                                                                                                                                                                                                                                                                                                                                                                                                                                                                                                                                                                                                                                                                                                                                                                                                                                                                                                                                                                         
ACSSF DE060000000020     1000192220                                                                                                                                               06000US1000192220                       Milford North CCD, Kent County, Delaware                                                                                                                                                                                                                                                                                                                                                                                                                                                                                                                                                                                                                                                                                                                                                                                                                                                                                                                                                                                                                                                  
ACSSF DE060000000021     1000193700                                                                                                                                               06000US1000193700                       Smyrna CCD, Kent County, Delaware                                                                                                                                                                                                                                                                                                                                                                                                                                                                                                                                                                                                                                                                                                                                                                                                                                                                                                                                                                                                                                                         
ACSSF DE060000000022     1000390148                                                                                                                                               06000US1000390148                       Brandywine CCD, New Castle County, Delaware                                                                                                                                                                                                                                                                                                                                                                                                                                                                                                                                                                                                                                                                                                                                                                                                                                                                                                                                                                                                                                               
ACSSF DE060000000023     1000391110                                                                                                                                               06000US1000391110                       Glasgow CCD, New Castle County, Delaware                                                                                                                                                                                                                                                                                                                                                                                                                                                                                                                                                                                                                                                                                                                                                                                                                                                                                                                                                                                                                                                  
ACSSF DE060000000024     1000391924                                                                                                                                               06000US1000391924                       Lower Christiana CCD, New Castle County, Delaware                                                                                                                                                                                                                                                                                                                                                                                                                                                                                                                                                                                                                                                                                                                                                                                                                                                                                                                                                                                                                                         
ACSSF DE060000000025     1000392072                                                                                                                                               06000US1000392072                       Middletown-Odessa CCD, New Castle County, Delaware                                                                                                                                                                                                                                                                                                                                                                                                                                                                                                                                                                                                                                                                                                                                                                                                                                                                                                                                                                                                                                        
ACSSF DE060000000026     1000392738                                                                                                                                               06000US1000392738                       Newark CCD, New Castle County, Delaware                                                                                                                                                                                                                                                                                                                                                                                                                                                                                                                                                                                                                                                                                                                                                                                                                                                                                                                                                                                                                                                   
ACSSF DE060000000027     1000392812                                                                                                                                               06000US1000392812                       New Castle CCD, New Castle County, Delaware                                                                                                                                                                                                                                                                                                                                                                                                                                                                                                                                                                                                                                                                                                                                                                                                                                                                                                                                                                                                                                               
ACSSF DE060000000028     1000392960                                                                                                                                               06000US1000392960                       Piedmont CCD, New Castle County, Delaware                                                                                                                                                                                                                                                                                                                                                                                                                                                                                                                                                                                                                                                                                                                                                                                                                                                                                                                                                                                                                                                 
ACSSF DE060000000029     1000393108                                                                                                                                               06000US1000393108                       Pike Creek-Central Kirkwood CCD, New Castle County, Delaware                                                                                                                                                                                                                                                                                                                                                                                                                                                                                                                                                                                                                                                                                                                                                                                                                                                                                                                                                                                                                              
ACSSF DE060000000030     1000393256                                                                                                                                               06000US1000393256                       Red Lion CCD, New Castle County, Delaware                                                                                                                                                                                                                                                                                                                                                                                                                                                                                                                                                                                                                                                                                                                                                                                                                                                                                                                                                                                                                                                 
ACSSF DE060000000031     1000393848                                                                                                                                               06000US1000393848                       Upper Christiana CCD, New Castle County, Delaware                                                                                                                                                                                                                                                                                                                                                                                                                                                                                                                                                                                                                                                                                                                                                                                                                                                                                                                                                                                                                                         
ACSSF DE060000000032     1000393996                                                                                                                                               06000US1000393996                       Wilmington CCD, New Castle County, Delaware                                                                                                                                                                                                                                                                                                                                                                                                                                                                                                                                                                                                                                                                                                                                                                                                                                                                                                                                                                                                                                               
ACSSF DE060000000033     1000590296                                                                                                                                               06000US1000590296                       Bridgeville-Greenwood CCD, Sussex County, Delaware                                                                                                                                                                                                                                                                                                                                                                                                                                                                                                                                                                                                                                                                                                                                                                                                                                                                                                                                                                                                                                        
ACSSF DE060000000034     1000591036                                                                                                                                               06000US1000591036                       Georgetown CCD, Sussex County, Delaware                                                                                                                                                                                                                                                                                                                                                                                                                                                                                                                                                                                                                                                                                                                                                                                                                                                                                                                                                                                                                                                   
ACSSF DE060000000035     1000591628                                                                                                                                               06000US1000591628                       Laurel-Delmar CCD, Sussex County, Delaware                                                                                                                                                                                                                                                                                                                                                                                                                                                                                                                                                                                                                                                                                                                                                                                                                                                                                                                                                                                                                                                
ACSSF DE060000000036     1000591776                                                                                                                                               06000US1000591776                       Lewes CCD, Sussex County, Delaware                                                                                                                                                                                                                                                                                                                                                                                                                                                                                                                                                                                                                                                                                                                                                                                                                                                                                                                                                                                                                                                        
ACSSF DE060000000037     1000592368                                                                                                                                               06000US1000592368                       Milford South CCD, Sussex County, Delaware                                                                                                                                                                                                                                                                                                                                                                                                                                                                                                                                                                                                                                                                                                                                                                                                                                                                                                                                                                                                                                                
ACSSF DE060000000038     1000592516                                                                                                                                               06000US1000592516                       Millsboro CCD, Sussex County, Delaware                                                                                                                                                                                                                                                                                                                                                                                                                                                                                                                                                                                                                                                                                                                                                                                                                                                                                                                                                                                                                                                    
ACSSF DE060000000039     1000592664                                                                                                                                               06000US1000592664                       Milton CCD, Sussex County, Delaware                                                                                                                                                                                                                                                                                                                                                                                                                                                                                                                                                                                                                                                                                                                                                                                                                                                                                                                                                                                                                                                       
ACSSF DE060000000040     1000593404                                                                                                                                               06000US1000593404                       Seaford CCD, Sussex County, Delaware                                                                                                                                                                                                                                                                                                                                                                                                                                                                                                                                                                                                                                                                                                                                                                                                                                                                                                                                                                                                                                                      
ACSSF DE060000000041     1000593552                                                                                                                                               06000US1000593552                       Selbyville-Frankford CCD, Sussex County, Delaware                                                                                                                                                                                                                                                                                                                                                                                                                                                                                                                                                                                                                                                                                                                                                                                                                                                                                                                                                                                                                                         
ACSSF DE070000000042     100019044410760                                                                                                                                          07000US100019044410760                  Camden town (part), Central Kent CCD, Kent County, Delaware                                                                                                                                                                                                                                                                                                                                                                                                                                                                                                                                                                                                                                                                                                                                                                                                                                                                                                                                                                                                                               
ACSSF DE070000000043     100019044444430                                                                                                                                          07000US100019044444430                  Magnolia town, Central Kent CCD, Kent County, Delaware                                                                                                                                                                                                                                                                                                                                                                                                                                                                                                                                                                                                                                                                                                                                                                                                                                                                                                                                                                                                                                    
ACSSF DE070000000044     100019044461265                                                                                                                                          07000US100019044461265                  Rising Sun-Lebanon CDP (part), Central Kent CCD, Kent County, Delaware                                                                                                                                                                                                                                                                                                                                                                                                                                                                                                                                                                                                                                                                                                                                                                                                                                                                                                                                                                                                                    
ACSSF DE070000000045     100019044461480                                                                                                                                          07000US100019044461480                  Riverview CDP, Central Kent CCD, Kent County, Delaware                                                                                                                                                                                                                                                                                                                                                                                                                                                                                                                                                                                                                                                                                                                                                                                                                                                                                                                                                                                                                                    
ACSSF DE070000000046     100019044474330                                                                                                                                          07000US100019044474330                  Viola town, Central Kent CCD, Kent County, Delaware                                                                                                                                                                                                                                                                                                                                                                                                                                                                                                                                                                                                                                                                                                                                                                                                                                                                                                                                                                                                                                       
ACSSF DE070000000047     100019044480830                                                                                                                                          07000US100019044480830                  Woodside town, Central Kent CCD, Kent County, Delaware                                                                                                                                                                                                                                                                                                                                                                                                                                                                                                                                                                                                                                                                                                                                                                                                                                                                                                                                                                                                                                    
ACSSF DE070000000048     100019044480895                                                                                                                                          07000US100019044480895                  Woodside East CDP, Central Kent CCD, Kent County, Delaware                                                                                                                                                                                                                                                                                                                                                                                                                                                                                                                                                                                                                                                                                                                                                                                                                                                                                                                                                                                                                                
ACSSF DE070000000049     100019044499999                                                                                                                                          07000US100019044499999                  Remainder of Central Kent CCD, Central Kent CCD, Kent County, Delaware                                                                                                                                                                                                                                                                                                                                                                                                                                                                                                                                                                                                                                                                                                                                                                                                                                                                                                                                                                                                                    
ACSSF DE070000000050     100019074010760                                                                                                                                          07000US100019074010760                  Camden town (part), Dover CCD, Kent County, Delaware                                                                                                                                                                                                                                                                                                                                                                                                                                                                                                                                                                                                                                                                                                                                                                                                                                                                                                                                                                                                                                      
ACSSF DE070000000051     100019074014660                                                                                                                                          07000US100019074014660                  Cheswold town, Dover CCD, Kent County, Delaware                                                                                                                                                                                                                                                                                                                                                                                                                                                                                                                                                                                                                                                                                                                                                                                                                                                                                                                                                                                                                                           
ACSSF DE070000000052     100019074021200                                                                                                                                          07000US100019074021200                  Dover city, Dover CCD, Kent County, Delaware                                                                                                                                                                                                                                                                                                                                                                                                                                                                                                                                                                                                                                                                                                                                                                                                                                                                                                                                                                                                                                              
ACSSF DE070000000053     100019074021387                                                                                                                                          07000US100019074021387                  Dover Base Housing CDP, Dover CCD, Kent County, Delaware                                                                                                                                                                                                                                                                                                                                                                                                                                                                                                                                                                                                                                                                                                                                                                                                                                                                                                                                                                                                                                  
ACSSF DE070000000054     100019074033250                                                                                                                                          07000US100019074033250                  Hartly town, Dover CCD, Kent County, Delaware                                                                                                                                                                                                                                                                                                                                                                                                                                                                                                                                                                                                                                                                                                                                                                                                                                                                                                                                                                                                                                             
ACSSF DE070000000055     100019074034810                                                                                                                                          07000US100019074034810                  Highland Acres CDP, Dover CCD, Kent County, Delaware                                                                                                                                                                                                                                                                                                                                                                                                                                                                                                                                                                                                                                                                                                                                                                                                                                                                                                                                                                                                                                      
ACSSF DE070000000056     100019074038710                                                                                                                                          07000US100019074038710                  Kent Acres CDP, Dover CCD, Kent County, Delaware                                                                                                                                                                                                                                                                                                                                                                                                                                                                                                                                                                                                                                                                                                                                                                                                                                                                                                                                                                                                                                          
ACSSF DE070000000057     100019074041700                                                                                                                                          07000US100019074041700                  Leipsic town (part), Dover CCD, Kent County, Delaware                                                                                                                                                                                                                                                                                                                                                                                                                                                                                                                                                                                                                                                                                                                                                                                                                                                                                                                                                                                                                                     
ACSSF DE070000000058     100019074042870                                                                                                                                          07000US100019074042870                  Little Creek town, Dover CCD, Kent County, Delaware                                                                                                                                                                                                                                                                                                                                                                                                                                                                                                                                                                                                                                                                                                                                                                                                                                                                                                                                                                                                                                       
ACSSF DE070000000059     100019074061265                                                                                                                                          07000US100019074061265                  Rising Sun-Lebanon CDP (part), Dover CCD, Kent County, Delaware                                                                                                                                                                                                                                                                                                                                                                                                                                                                                                                                                                                                                                                                                                                                                                                                                                                                                                                                                                                                                           
ACSSF DE070000000060     100019074061720                                                                                                                                          07000US100019074061720                  Rodney Village CDP, Dover CCD, Kent County, Delaware                                                                                                                                                                                                                                                                                                                                                                                                                                                                                                                                                                                                                                                                                                                                                                                                                                                                                                                                                                                                                                      
ACSSF DE070000000061     100019074081350                                                                                                                                          07000US100019074081350                  Wyoming town, Dover CCD, Kent County, Delaware                                                                                                                                                                                                                                                                                                                                                                                                                                                                                                                                                                                                                                                                                                                                                                                                                                                                                                                                                                                                                                            
ACSSF DE070000000062     100019074099999                                                                                                                                          07000US100019074099999                  Remainder of Dover CCD, Dover CCD, Kent County, Delaware                                                                                                                                                                                                                                                                                                                                                                                                                                                                                                                                                                                                                                                                                                                                                                                                                                                                                                                                                                                                                                  
ACSSF DE070000000063     100019088826620                                                                                                                                          07000US100019088826620                  Felton town, Felton CCD, Kent County, Delaware                                                                                                                                                                                                                                                                                                                                                                                                                                                                                                                                                                                                                                                                                                                                                                                                                                                                                                                                                                                                                                            
ACSSF DE070000000064     100019088899999                                                                                                                                          07000US100019088899999                  Remainder of Felton CCD, Felton CCD, Kent County, Delaware                                                                                                                                                                                                                                                                                                                                                                                                                                                                                                                                                                                                                                                                                                                                                                                                                                                                                                                                                                                                                                
ACSSF DE070000000065     100019133225840                                                                                                                                          07000US100019133225840                  Farmington town, Harrington CCD, Kent County, Delaware                                                                                                                                                                                                                                                                                                                                                                                                                                                                                                                                                                                                                                                                                                                                                                                                                                                                                                                                                                                                                                    
ACSSF DE070000000066     100019133233120                                                                                                                                          07000US100019133233120                  Harrington city, Harrington CCD, Kent County, Delaware                                                                                                                                                                                                                                                                                                                                                                                                                                                                                                                                                                                                                                                                                                                                                                                                                                                                                                                                                                                                                                    
ACSSF DE070000000067     100019133236760                                                                                                                                          07000US100019133236760                  Houston town, Harrington CCD, Kent County, Delaware                                                                                                                                                                                                                                                                                                                                                                                                                                                                                                                                                                                                                                                                                                                                                                                                                                                                                                                                                                                                                                       
ACSSF DE070000000068     100019133299999                                                                                                                                          07000US100019133299999                  Remainder of Harrington CCD, Harrington CCD, Kent County, Delaware                                                                                                                                                                                                                                                                                                                                                                                                                                                                                                                                                                                                                                                                                                                                                                                                                                                                                                                                                                                                                        
ACSSF DE070000000069     100019148039100                                                                                                                                          07000US100019148039100                  Kenton town, Kenton CCD, Kent County, Delaware                                                                                                                                                                                                                                                                                                                                                                                                                                                                                                                                                                                                                                                                                                                                                                                                                                                                                                                                                                                                                                            
ACSSF DE070000000070     100019148099999                                                                                                                                          07000US100019148099999                  Remainder of Kenton CCD, Kenton CCD, Kent County, Delaware                                                                                                                                                                                                                                                                                                                                                                                                                                                                                                                                                                                                                                                                                                                                                                                                                                                                                                                                                                                                                                
ACSSF DE070000000071     100019222007250                                                                                                                                          07000US100019222007250                  Bowers town, Milford North CCD, Kent County, Delaware                                                                                                                                                                                                                                                                                                                                                                                                                                                                                                                                                                                                                                                                                                                                                                                                                                                                                                                                                                                                                                     
ACSSF DE070000000072     100019222028440                                                                                                                                          07000US100019222028440                  Frederica town, Milford North CCD, Kent County, Delaware                                                                                                                                                                                                                                                                                                                                                                                                                                                                                                                                                                                                                                                                                                                                                                                                                                                                                                                                                                                                                                  
ACSSF DE070000000073     100019222047420                                                                                                                                          07000US100019222047420                  Milford city (part), Milford North CCD, Kent County, Delaware                                                                                                                                                                                                                                                                                                                                                                                                                                                                                                                                                                                                                                                                                                                                                                                                                                                                                                                                                                                                                             
ACSSF DE070000000074     100019222099999                                                                                                                                          07000US100019222099999                  Remainder of Milford North CCD, Milford North CCD, Kent County, Delaware                                                                                                                                                                                                                                                                                                                                                                                                                                                                                                                                                                                                                                                                                                                                                                                                                                                                                                                                                                                                                  
ACSSF DE070000000075     100019370015440                                                                                                                                          07000US100019370015440                  Clayton town (part), Smyrna CCD, Kent County, Delaware                                                                                                                                                                                                                                                                                                                                                                                                                                                                                                                                                                                                                                                                                                                                                                                                                                                                                                                                                                                                                                    
ACSSF DE070000000076     100019370041700                                                                                                                                          07000US100019370041700                  Leipsic town (part), Smyrna CCD, Kent County, Delaware                                                                                                                                                                                                                                                                                                                                                                                                                                                                                                                                                                                                                                                                                                                                                                                                                                                                                                                                                                                                                                    
ACSSF DE070000000077     100019370067310                                                                                                                                          07000US100019370067310                  Smyrna town (part), Smyrna CCD, Kent County, Delaware                                                                                                                                                                                                                                                                                                                                                                                                                                                                                                                                                                                                                                                                                                                                                                                                                                                                                                                                                                                                                                     
ACSSF DE070000000078     100019370099999                                                                                                                                          07000US100019370099999                  Remainder of Smyrna CCD, Smyrna CCD, Kent County, Delaware                                                                                                                                                                                                                                                                                                                                                                                                                                                                                                                                                                                                                                                                                                                                                                                                                                                                                                                                                                                                                                
